:020000020000FC
:20000000008200141001483A10BFF80400BFFD1600400034084053140800683A000000004D
:20000800DEFFED04DFC00015D8400215D8800315D8C00415D9000515D9400615D98007156A
:20001000D9C00815000B307ADA000915DA400A15DA800B15DAC00C15DB000D15DB400E15C4
:20001800DB800F15DBC01015D9401115EBFFFF04DBC012150009313A2880004C10000326FA
:200020002000022600000EC000000306DF401215E8BFFF17003DA03AD9401117DF401217FE
:20002800DFC000172801707AD8400217D8800317D8C00417D9000517D9400617D9800717F7
:20003000D9C00817DA000917DA400A17DA800B17DAC00C17DB000D17DB400E17DB800F17CA
:20003800DBC01017DEC01304EF80083ADEFFFE04DFC00115DC0000150009313A040000344F
:200040008415A4040005883A00C00044190A703A28000B26100490FA8085883A10C0001722
:2000480011000117183EE83A0009313A203FF51EDFC00117DC000017DEC00204F800283A69
:2000500018C7883A10800044003FF00606C00074DEC0001406800034D6B0AD140080003445
:2000580010957A1400C0003418D5E41410C00326100000151080010410FFFD3600012FC097
:2000600000013F40003FFF06DEFFFB04DC800215DC400115DC000015DFC00415DCC00315DE
:200068002025883A3023883A2821883A000067C089003FCC000088C01000032600006E4067
:2000700000BFFFC4000011060009883A000088C0000067C08900005421003FCC000088C04C
:200078000023883A84FFFFC48C00060E8CC8803A000073C09447883A188000058C40004412
:20008000003FF90600006E408005883ADFC00417DCC00317DC800217DC400117DC00001721
:20008800DEC00504F800283ADEFFF704DDC00715DD800615DD400515DD000415DCC003156D
:20009000DC800215DC400115DC000015DFC0081500801444208002050080054420800245CF
:2000980000800C8420800405008006442080044500BFE0042021883A2080050524400D8497
:2000A00025400DC425000E4424C00E8424800E0425801F8405C03F048880000310000D1ED1
:2000A800A880000310000B1E908000031000091E988000031000071EA080000315C0051E1F
:2000B0000140003489000144294B140401800344000099808C400484AD400484A50004848A
:2000B8009CC00484948004848DBFEB1E80001F858007883A81001FC40005883A194000035F
:2000C00018C000441145883A193FFC1E0085C83A80801FC5DFC00817DDC00717DD8006171C
:2000C800DD400517DD000417DCC00317DC800217DC400117DC000017DEC00904F800283A90
:2000D0002080000310C03FCC1800131E20C001C319403FCC2800131E20800044214001C4DE
:2000D80001803FC411C0000339800D1E10800044117FFC1E20C020040005883A214000031F
:2000E000210000441145883A20FFFC1E10803FCC1005003AF800283A0005883AF800283AE5
:2000E8001805883AF800283A0080403401BFC03401400034010040341094000431AC0004A4
:2000F00029558404211420041187883A1947883A18C000031080004410FFFFC5113FFA1E2B
:2000F800F800283ADEFFFE04DC000015D124CD152021883A01000034800B883A210B18041A
:20010000DFC0011500009FC0D124CE1701400034294B1C0401800204000160C08421883AD9
:2001080000800034108BFA048421883A1421883A840000178009883A0000ADC0D124CE17FF
:20011000800B883A100D883ADFC00117DC000017DEC00204000160C101000034DEFFFB0422
:20011800210B1F04DFC00415DC000015DCC00315DC800215DC40011500015B0001000034E5
:20012000000D883A210B2504014000440001434001000034210B2A04100B883AD0A4CE15CF
:2001280000009FC0D124CE1701400034294B2C040180018404004034000160C0841000042E
:2001300080C0003700BFFBC41884703A808000350009883A0480003400003E4094814004E5
:200138008023883AD0A4CD1700C0010418BFFF36100490BA1485883A108000171000683A07
:20014000000005140000058C000005A0000005E00000063C00804034108000371080040CCE
:20014800100002260100010400005006010000342115840401402004018028040000188066
:200150001000030E0130D41400015E80003FE50601000034100B883A210B2E0400009FC07D
:2001580001000034211584040000340014C03FCC01000034210B3204980B883A00009FC026
:20016000983FD82601000044000038060100003421158404000022800100008400003306D4
:2001680080C0003700BFFBC41884703A80800035010003F42110900400015E8000003A80B1
:2001700001000034210B36040000AC80808000371080041480800035010000C400002306A6
:20017800010000F42103500400015E8001000034211584040140200401802804000018807E
:2001800000FFFFC410C0052601000034211584040000340010803FCC103FB21E80C000374A
:2001880000BFFBC41884703A8080003501000034210B3A040000AC8000000B06808000374B
:20019000108004148080003500804034108000371080040C103FA31E88C0003700BFFBC40A
:200198001884703A888000350009883A00003E40003F9C060100014400015E81DEFFFE0495
:2001A000DC0000150400403484100004DFC0011580C0003700BFFDC41884703A8080003517
:2001A8000000674080C0003700BFFEC41884703A8080003500006740808000371080021499
:2001B0008080003500006740808000371080011480800035DFC00117DC000017DEC00204F4
:2001B80000006741DEFFFE04DC0000150400403484100004DFC0011580800037108002140D
:2001C000808000350000674080C0003700BFFEC41884703A808000350000674080C00037B2
:2001C80000BFFDC41884703A80800035DFC00117DC000017DEC0020400006741DEFFF8044D
:2001D000DC00001504004034DCC00315841000042027883ADFC00715DD800615DD400515E7
:2001D800DD000415DC800215DC40011580C0003700BFFDC41884703A808000350000674053
:2001E000050002040025883A057FFEC40580403494403FCC8C40201C8C7FE0048C63883A47
:2001E8008825883A808000371544703A80800035B08000371080010C103FFA2600006740FF
:2001F00000804034108000371080020C100001268C800054044040348C5000048080003730
:2001F800108001148080003500006740A0BFFFC41029883A10803FCC103FE51E9CC03FCCF5
:200200009CC0201C9CFFE0049800032688800037108002140000030688C0003700BFFDC419
:200208001884703A888000350000674080C0003700BFFEC41884703A808000350000674092
:200210008080003710800114808000350000674080C0003700BFFDC41884703A80800035A4
:200218009005883ADFC00717DD800617DD400517DD000417DCC00317DC800217DC400117A8
:20022000DC000017DEC00804F800283ADEFFF904DC00001504004034DD400515DD00041557
:20022800DCC00315DC800215DFC00615DC4001152025883A0500020484100004057FFDC4B4
:2002300004FFFEC490803FCC1080201C10BFE0041000030E808000371544703A00000206EC
:2002380080800037108002148080003504404034000067408C5000048080003714C4703A9C
:20024000808000350000674094A5883A808000371080011480800035A0BFFFC41029883A99
:2002480010803FCC103FE71E88C0003700BFFDC41884703A888000350000674088C00037FF
:2002500000BFFEC41884703A888000350000674000804034108000371004D0FA1080004C6E
:20025800D0A4CF05888000371080011488800035D0A4CF03DFC00617DD400517DD000417EA
:20026000DCC00317DC800217DC400117DC000017DEC00704F800283A2005883A0007883A79
:200268001980062628C9883A21C0000310C9883A18C0004421C00005003FF906F800283AE5
:20027000DEFFFD04DFC00015D9800115D9C0021520C00217280D883A0140003429443304B4
:200278001940011521400217D9C001040000B640DFC00017DEC00304F800283ADEFFFC0457
:20028000DFC00015D9400115D9800215D9C00315008000341090AE0410800017200B883AC0
:200288000100003410C0021721043304D9800104190001151100021700010A80DFC00017E4
:20029000DEC00404F800283ADEFFFD04DC0000152021883A2809883ADFC00215DC400115A1
:200298002823883A0000ADC08140021700C0003418C4330428C001158009883A880D883A4B
:2002A000100F883A00010CC000FFFFC410C0092681400217018000348009883A2880011735
:2002A800318B1B0401C00044103EE83A10BFFFE00085C83ADFC00217DC400117DC000017D2
:2002B000DEC00304F800283A008000341090AE04200B883A110000170000A4812005883A08
:2002B80010C000071800022610800044003FFC061105C83AF800283ADEFFFB04DC80031538
:2002C000DC400215DC000115DFC004152025883A2823883AD98000053821883A04000A0E98
:2002C800888001179009883A880B883AD80D883A01C00044103EE83A843FFFC4103FF72638
:2002D00000BFFFC4000001060005883ADFC00417DC800317DC400217DC000117DEC00504BE
:2002D800F800283ADEFFE404D8C00804DF001A15DDC01915DD801815DD401715DD0016158F
:2002E000DCC01515DC801415DC401315DC001215DFC01B152027883A2839883A382F883A48
:2002E800D9800F150021883AD8000E15002D883A0029883A0025883A0023883AD8000C15FC
:2002F000D8000B15002B883AD8C00915D8C00F171900000320803FCC1080201C10BFE0044F
:2002F8001001242600C00044A8C014261D400216A800062600011B0601400084A9401D2689
:20030000014000C4A9402926000116060140094411410326E0800117D9000005E00B883A77
:200308009809883AD80D883A01C00044103EE83A1000DE1E8400004400010A0601400C0420
:20031000114100260140094411400A1ED8800005E08001179809883AE00B883AD80D883AC2
:20031800A80F883A103EE83A1000D01E840000440000FB06217FF40429403FCC00C0024403
:200320001940073600BFFFC4888002268C4002A4000001060023883A8963883A0000EA0679
:2003280001400B841140EC2605400084213FF40421003FCC00C002441900073600BFFFC457
:2003300090800226948002A4000001060025883A9125883A0000E30600C01B0410C0DC26BB
:20033800013FFFC491000226D8000B15000001060480004401001A441100162620800916B7
:20034000010018C4110092260100190411001126010016041100D21E00C00044D8C00E15B6
:200348000000140601001CC41100A2262080041601001BC41100CA1E0500020400000E060F
:2003500001001D4411000C2601001E04110009260000C306B8800104B0000726D8800D1528
:20035800BDC00017B800080E05EFC83A024000440000060605000404B8C00104D8C00D1557
:20036000BDC00017002D883A0013883A002B883ADD4D883AB8001626B809883AA00B883A68
:20036800D9801015DA40111500012EC0A089383A00C00244D9801017B92FC83ADA4011177B
:200370001DC00216BDC00C0400000506D8C00E1718000226BDC00DC400000106BDC015C438
:2003780035C00005AD400044102F883A003FE80636C7C83AD8C00A1590C5C83A302F883ADE
:2003800000800E0E302B883A3085883A01400C04D8C00917A809883AA8C0052EAD400044E5
:2003880021400005A82F883AA8BFF91E00000106A82F883AAEEBC83ADD400A15D8C00A17A8
:200390001A51883AD8C00B178A2BC83A1800172648000A2600800B44D8800805E080011736
:200398009809883AE00B883AD980080401C00044103EE83A10004D1E840000440540070EBE
:2003A0009809883AE00B883A01800C04A80F883A0000AF801000451E8561883AD8C00A1720
:2003A800B811883A1DEBC83A000022060540090E9809883AE00B883A01800804A80F883A06
:2003B000DA4011150000AF80DA4011171000371E8561883A483FF12600800B44D88008059D
:2003B800E08001179809883AE00B883AD980080401C00044103EE83A10002C1E84000044A1
:2003C000003FE606423FFFC4408000039809883AE00B883AD8800805E0800117D980080499
:2003C800DA00101501C00044103EE83ADA00101710001E1E8205C83A4549883AB885883A7C
:2003D000013FF0161021883ADDC00D1700004406008000441440080E8D7FFFC49809883A69
:2003D800E00B883A01800804A80F883A0000AF8010000E1E8561883AB88000179809883A8D
:2003E000E00B883AD8800005E0800117D80D883A01C00044BD400104103EE83A1000031E2C
:2003E80084000044A82F883A00002D0600BFFFC400003106BD400017B8C00104D8C00A1560
:2003F000A809883A0000ADC08893C83A102F883A0240090E480F883A9809883AE00B883A6D
:2003F80001800804DA4011150000AF80DA401117103FEE1E8261883AE08001179809883ACC
:20040000E00B883AA80D883AB80F883A103EE83A103FE61E85E1883ADDC00A170000100670
:200408000580004404BFFFC4D8000E15050002849023883AD8000C15D8000B15B02B883AFC
:2004100000000806DD400B15054000840000050600C00044D8C00C15054000C400000106E0
:20041800002B883AD8C00F1718C00044D8C00F15003ED6068005883ADFC01B17DF001A17FF
:20042000DDC01917DD801817DD401717DD001617DCC01517DC801417DC401317DC00121774
:20042800DEC01C04F800283A2007883A010000342110AE04210000172805883A300F883A73
:20043000180B883A100D883A0000B6412880000BDEFFFA04DC000015DFC00515DD000415C3
:20043800DCC00315DC800215DC4001151080020C2821883A100017262880008F10001216E6
:200440002027883A3025883A3823883A0501000404400B0E8140008F880F883AA440010E5C
:2004480001C100049809883A900D883A000117800080050E88A3C83A90A5883A003FF40684
:200450000005883A000004068080000B108010148080000D00BFFFC4DFC00517DD000417BA
:20045800DCC00317DC800217DC400117DC000017DEC00604F800283ADEFFFD04DC00001561
:2004600004000034DC40011584157D042023883A2809883A300B883A380D883ADFC0021546
:2004680080000015000160C000FFFFC410C0031E80C000171800012688C00015DFC0021760
:20047000DC400117DC000017DEC00304F800283A2900182E280017160080080400C00044F2
:20047800000002061000112628000516294B883A10BFFFC418C7883A293FFA3618000B2688
:200480000005883A214002362149C83A10C4B03A1806D07A280AD07A183FFA1E3000011E30
:20048800F800283A2005883AF800283A0005883A003FFA0600C00044003FF106DEFFFE049A
:20049000DFC00115DC00001520000B160021883A28000C16000D883A00011D000407C83A3E
:200498001884F03A1405883ADFC00117DC000017DEC00204F800283A0109C83A04000044A7
:2004A000283FF40E014BC83A8400005C003FF106DEFFFD04DFC00215DC400115DC000015B8
:2004A80020000C160023883A0021883A28000D160180004400011D001404F03A8885883AEB
:2004B000DFC00217DC400117DC000017DEC00304F800283A0109C83A04400044043FFFC4B4
:2004B800283FF30E014BC83A003FF106000D883A00011D010180004400011D01DEFFFF0486
:2004C0000100003401400034DFC00015210BFA042950BA042140061E01000034014000342E
:2004C80021000804294008042140141E00000D0600C0003418D0BA0400BFFF041907C83A4E
:2004D0001886703A0005883A10FFF326114F883A39C00017110D883A1080010431C0001528
:2004D800003FF9060100003401400034210B1404294B14042140121E00000D0600C00034B4
:2004E00018C0530400BFFF041907C83A1886703A0005883A10FFF326114F883A39C0001780
:2004E800110D883A1080010431C00015003FF90600026940DFC00017DEC00104000288416C
:2004F00000C0003418CBFA0400BFFF041907C83A1886703A0005883A10FFF526114F883AD8
:2004F80039C00017110D883A1080010431C00015003FF906DEFFFF040009883ADFC00015BC
:200500000001690000016B0001000034210B5104200B883A200D883A0002A040D124D317B2
:20050800D164D217D1A4D117DFC00017DEC0010400004581DEFFF904DC0000152821883A63
:20051000014000342950B104DD400515DD000415DCC00315DC800215DFC00615DC400115E8
:200518002025883A3027883A000271801029883A002B883A1000051E9009883A000278C000
:200520001029883A10003A2605400044A009883A000283801023883A1000381612000324CB
:2005280000C0003418D097040250003440D1883A4A7FFFC48252703A40800204A800052640
:2005300012400015A08003171000131E8805883A00002E064A50003412400015008000345D
:200538001090B00411000017400B883A0005883A19C00017298000173980031E1980021717
:200540003000010E1A001F1E1080004418C0030420BFF72E003FEB06800D883A4009883AC4
:20054800900B883A980F883A103EE83A1021883A8805883A8000150E8809883A00015C4088
:20055000008000341090B5041080001710000226103EE83A000002060080003410957D044D
:200558000421C83A1400001500BFFFC400000706043FFB44047FFFC4003FEF061021883AB5
:20056000003FED06043FFCC4003FEB06DFC00617DD400517DD000417DCC00317DC800217FE
:20056800DC400117DC000017DEC00704F800283A008000341090AE04108000171140021732
:200570000002BA81008000841100060E2100032400800034109097041109883A20000215BB
:2005780020000015F800283A000261C1008000341090B50410800017100001261000683A13
:200580000080003410957D04F800283ADEFFFE04DFC00115DC000015200014162100032410
:2005880000800034109097042089883A20800217108000CC10000A26208000171080061740
:2005900010000726103EE83A1021883A10000B0E00015EC00421C83A140000150000060607
:2005980000015EC000C003440000020600015EC000C0144410C00015043FFFC48005883AAC
:2005A000DFC00117DC000017DEC00204F800283ADEFFFF04DFC000150002B6800080004403
:2005A8001001703ADFC00017DEC00104F800283ADEFFFD040100403401C0FA04DC40011581
:2005B000210C0004000B883A000D883A04400034DFC00215DC0000158C4C89040002538005
:2005B800018000448809883A000B883A0400003400018B008410B104800B883A893FF60422
:2005C0000440003400026A008C4C41048809883A00023FC0893FF604800B883ADFC00217FF
:2005C800DC400117DC000017DEC0030400026A012005883A2100001711C0021721000A04A2
:2005D00000019D412005883A2100001711C0021721000A040001B0C12005883A2100001763
:2005D8001140021721000A04000193012100001721000A040001960120800017108001048A
:2005E00010C0003718C1000C1800052620C0081718C1001410C00035200009150000060691
:2005E8002080091700E0003418FFFF041880023610800044208009150080003410958304C3
:2005F00010800017F800283A21C00017027FFF84023FFF44398001043080003710C0C00C29
:2005F8001800322610C0400C1800182600C0007421400A1722800B17294000442941FFCCA5
:200600002A800B2638C000371960000C2800082621400A17214B883A28C00E0521400A17C8
:20060800294000442941FFCC21400A15003FF00618FFFFEC1800052620C008171A46703AED
:2006100020C0081530C0003530C0003710C0800C183FE1261004D43A103FDF2621400D17CC
:2006180020C00C1728C00A2620C00D1720C7883A18C20E0738C0003520C00D1710BFFFC448
:2006200018C0004418C1FFCC20C00D15003FF2062080081720C000171204703A208008158E
:200628001880013530800037003FCB06F800283ADEFFFD04DC0001152021883A80C0001769
:2006300000800044DFC002152809883A8080081518800135300B883A018000343185F204F4
:20063800800F883AD80000150002890000800034109583041140001701800034800009153E
:20064000810002043185DE04800F883A000258801000030E00A0003410BFFFC480800115B3
:20064800DFC00217DC000117DEC00304F800283A21800C172950000C20800D17118006261D
:2006500020C00917208001171880032E283FFA2600BFFD44F800283A0005883AF800283A07
:20065800009A804428800326009A808428800E260000160620C0011700A0003410BFFFC45F
:20066000188012263080001701600034297FFF0410FFFF8428C0022E00A0003410BFFF84D3
:20066800208001150000070620C0011700A0003410BFFFC4188005262080091710C5803A3F
:20067000308000150005883AF800283A00BFF9C4F800283ADEFFF604DF000815DDC0071522
:20067800DD800615DD000415DCC00315DC000015DFC00915DD400515DC800215DC400115B6
:200680002021883A282D883A3027883A3829883A05C200043F10000C04C02B0EB007883A68
:2006880085400A1784800B17AC800236ACA3C83A00000106BCA3C83A88000D269C40012E63
:200690009823883A91400E041809883A880D883A814B883A000099801447883A9C67C83AE7
:200698008CA3883A8C41FFCC84400B1504FFEC161D80091EE000141E80800A17A880031E90
:2006A00080C009178080011718BFFB3680800A17A8BFE11E00000C06000B303A00BFFF846A
:2006A8002884703A1001703A81000817808000172100005481000815110001352801703A3D
:2006B0001D85C83A00000506A510000CA000022600BFFD440000010600BFFEC4DFC00917AB
:2006B800DF000817DDC00717DD800617DD400517DD000417DCC00317DC800217DC4001175F
:2006C000DC000017DEC00A04F800283ADEFFF304DF000B15DDC00A15DD800915DD400815DD
:2006C800DD000715DC800515DC000315382F883ADFC00C15DCC00615DC4004152025883AD3
:2006D000282B883A3029883A2821883A002D883A073FFF8439D0000C0201FFC402420004F4
:2006D80005001E0E94C00C1795800D179D80032EB47FFFC48CE3C83A00000406B00002268A
:2006E0004CE3C83A0000010644E3C83A88001326A440012EA023883A99020E04800B883A46
:2006E800880D883A9109883A8461883AA469C83A8CE3883AD9C00015DA000115DA40021589
:2006F0008C41FFCC00009980DA40021794400C15DA000117D9C00017003FE1060007303AD8
:2006F8001F04703A1001703A90800817910000171080009490800815208001351801703A99
:200700000500090E3800111E90800D17B080031E90C009179080011718BFFB369080091701
:20070800103FCF2600000606854002268545C83A00000806BDD0000CB800051E000001063F
:20071000857FFA1E00BFFEC400000206857FF71E00BFFD44DFC00C17DF000B17DDC00A178A
:20071800DD800917DD400817DD000717DCC00617DC800517DC400417DC000317DEC00D0400
:20072000F800283ADEFFFD04DC400115DFC00215DC000015208008072440001710000F1E41
:2007280000C003F418D0900489800104308000371080200C1000052618FFFFC4183FFB1E48
:20073000008000442080080500000406010019042821883A00015E808C000035DFC00217AD
:20073800DC400117DC000017DEC00304F800283ADEFFFB0401400044DFC00415DCC00315AE
:20074000DC800215DC400115DC000015044008042021883A04C014440001C84081001004F6
:20074800880B883A980D883A8000084580000885800008C50002C3000480040481000C04CC
:20075000880B883A900D883A0002C300810028C4880B883A980D883A800024450002C30039
:20075800810024C4880B883A900D883A0002C30080003D05DFC00417DCC00317DC800217F8
:20076000DC400117DC000017DEC00504F800283ADEFFF204DDC00B15DD000815DC80061550
:20076800DC400515DFC00D15DF000C15DD800A15DD400915DCC00715DC00041520C00943EA
:20077000202F883A24802444D8C00015250024840023883AA4000003D8C00017958000077B
:200778001C21383A8021D23A858001160021883A8D4018E4D0E0020488C7883ABD6B883A8C
:2007800094FFE7C40039883ADD400115D8C00215E409883AB00B883A00012900D8C0011738
:20078800990000071885883A15401003A8803FCC1080201C10BFE00420802626D8C002179B
:20079000B90008C718800003E085883A11403FCC2900082600FFE00410CAB03AB809883A22
:2007980029403FCCD88003150001C840D8800317B88008C5B8800807B94000171000141E44
:2007A000010003F4211090042A000104408000371080200C10000526213FFFC4203FFB1EC4
:2007A80000800044B88008050000090601001904D940031500015E80D9400317A8803FCC85
:2007B00028800235B88008C310800044B88008C59D400005E7000044008004049CC0004439
:2007B800E0BFCB1E00800044948018C4A50018C4888002261023883A003FB606DFC00D1781
:2007C000DF000C17DDC00B17DD800A17DD400917DD000817DCC00717DC800617DC40051736
:2007C800DC000417DEC00E04F800283ADEFFFE04DC000015DFC00115208009432021883A9C
:2007D0002100098310C03FCC18C0004419000216800009450000020610800044808009453C
:2007D80020000426808009C71000021E8009883A0001D90080800717DFC00117DC000017CA
:2007E000DEC00204F800283ADEFFFC04DC800215DC400115248028C404401404DC0000159C
:2007E800900B883A2021883A880D883A21001004DFC00315000099809009883A014008048D
:2007F000880D883A0002C3008080088310BFFFC480800885DFC00317DC800217DC400117C1
:2007F800DC000017DEC00404F800283ADEFFF604DDC00715DD800615DD400515DD000415B9
:20080000DCC00315DC800215DC400115DC000015DFC00915DF000815008000440480003459
:200808002021883A2823883A3027883A29A9883A208009C5054006C4058003449490B904E9
:2008100025C00A448D009A2E8F00000380800907E0C03FCC18C0201C18FFE004100063165B
:200818001000031E010016C41900081E000059069100001720C9883A210000432100010C31
:200820002000521E01000EC4190050268085883A10000A0581000A07008016C42080C41E72
:2008280092000017B809883A0005883A21400007414D883A318000433180010C30000526F8
:20083000108002A4297FF404210000441145883A003FF60601800EC42980261E2140004435
:200838000009883A29800007418F883A39C0004339C0010C38000526210002A431BFF4043F
:20084000294000442189883A003FF6060140128419401A2628C00216014012040000030674
:20084800014012C419401A26014019841940251E0100020E213FFFC4810008450080210EB5
:2008500010BFFFC411003FCC00C0010419000236808008850000010680C0088507000084D8
:2008580080800883E080172E8009883A0001F880003FFB06010012841900851E00C00084B5
:2008600010C0101E8009883A0001CF0000000D0600800C168080084300C013C418800936F1
:20086800810008830180140401400804210018E4308DC83A210010048109883A2089883AB6
:200870000002C30000BFFFC40000060600C00184188035168085883A17000A0580800903F4
:20087800108000448080090500002F061D40021E8000090500002C061D80021E8000084582
:20088000000029060080028418800A1E808008838000084500C00084108000448080088566
:2008880010803FCC1880202E8009883A0001F88000001D06008002041880061E808008435B
:2008900010C03FCC1800182610BFFFC480800845000015069080001710C7883A188000477E
:20089800108025CC100010268080088300C000441880022E8009883A0001F88080C00843D3
:2008A000008013C419003FCC1100053680800883108018E48085883A1105883A170010058F
:2008A80018C0004480C008458C400044003F65060140040480C024448100248481C055C459
:2008B000020008042813883A008014041ABFDBC411BFFFC45197883A5AC010075A00031E24
:2008B8003005883A303FFA1E000003064880020E10800044000001060080040418800005C1
:2008C0002880010E100B883A2000000518C018C4210018C419FFEC1E008004042880031E3B
:2008C800800009850480004400001006810024472963883A844009851100040E2008923A81
:2008D000880B883A000123C08080248581003D0700800404113FF30E2008923A880B883A3F
:2008D800000123C080803D45003FEE068009883A844009430001D90080800943800009C598
:2008E0008C403FCC14401026848009C5003FF70620C002160100120400000306010012C49A
:2008E800193F7B2601001984193F6426003F85060080128418BF832610FF820E008012C422
:2008F00018BF801E003F73069805883ADFC00917DF000817DDC00717DD800617DD40051731
:2008F800DD000417DCC00317DC800217DC400117DC000017DEC00A04F800283ADEFFFC04B3
:20090000DC800215DC400115DC000015DFC00315244000172021883A20000805010EA60426
:2009080000015E8004800C048C8000350104010400015E808C8000350100FA0400015E8013
:200910008C8000358009883A01400E040001C84004400204880B883A8009883A0001C840EC
:200918008009883A0001CF008009883A014001840001C8408009883A014003040001C840EE
:2009200000BFFFC4880D883A81000A0480800905000B883A0002C3000080003410958304CF
:20092800110000178000094580000985800009C50140028400012EC001800034810001046C
:20093000100B883A3187CB04800F883A80800715DFC00317DC800217DC400117DC00001781
:20093800DEC00404000258812005883A2100001711C0021721000A040001FEC1DEFFFE0447
:20094000DFC00115DC00001520000035208001370021303A00BFFF848084703A1001703A8E
:200948000002AB008001703ADFC00117DC000017DEC00204F800283A00C0003418D58304A7
:200950002005883A2809883A19400017DEFFFE04DFC001152800011E19C0001500C001C4EF
:2009580010C00135300B883A01800034D800001531893F04100F883A00028900DFC00117BA
:20096000DEC00204F800283A00800034109583041080001710001D2620001E262180031582
:2009680021C005150007303A00BFFF841884703A1001703A0080003410958204108000173A
:2009700011800044314B883A214002152880032E0080004420800405000001062000040566
:20097800008000341090B704114000172080011521400015114000171100001529000115EF
:200980001801703A0005883AF800283A00BFDE84F800283A00BFFA84F800283A01420034EA
:20098800DEFFFE04297FFFC4DC000015DFC001152021883A00012EC010000E260160003494
:20099000013E00340007883A297FFFC421000044297FFFC4283FFE1E18C000448121883ACD
:2009980018BFFB168020913A843FFFC4803FFE1E000003068020913A843FFFC4043FFE163A
:2009A0000005883ADFC00117DC000017DEC00204F800283AF800283A3005883AF800283A1D
:2009A80020000226208002171000131E008000341090B5041080001710000926DEFFFF041A
:2009B000DFC00015103EE83A00C0058410C0001500BFFA84DFC00017DEC00104F800283AE5
:2009B8000080003410957D0400C0058410C0001500BFFA84F800283A28800017214001154A
:2009C000208000152880001711000115290000150005883AF800283ADEFFFB04DCC003158D
:2009C800DC800215DC400115DC000015DFC004152027883A2823883A2C0000170000ADC0FB
:2009D000148000448440072681000217980B883A900D883A0002C000100004268400001749
:2009D800003FF8060005883A000001068005883ADFC00417DCC00317DC800217DC40011794
:2009E000DC000017DEC00504F800283A00800034DEFFFA041090B304DC0000151400001701
:2009E800DD000415DCC00315DC800215DFC00515DC4001152027883A1025883A05000BC413
:2009F00084801226844002178809883A0000ADC08887883A18FFFFC71D00011E10BFFFC492
:2009F8009887883A18C000071D0001261800051E8809883A980B883A100D883A0002C00047
:200A00001000042684000017003FED060005883A000001068005883ADFC00517DD00041707
:200A0800DCC00317DC800217DC400117DC000017DEC00604F800283A018000340005883AFE
:200A1000319097040140010410C003241987883A19C000173800071E1900001500C000345C
:200A180018D0B004190000172080050E18800015F800283A10800044117FF31E00BFFA0406
:200A2000F800283A0009883A014200040002B701000292C1000D303A00BFFF843084703A24
:200A28001001703A00800034109581040100004410C00017214A983A28CAB03A114000156A
:200A300010800017100170FA3001703A0005883AF800283A000D303A00BFFF843084703A71
:200A38001001703A0080003410958104013FFF8410C00017214A183A28CA703A114000159C
:200A400010800017100170FA3001703A0005883AF800283A000530FA00C00044194A983A10
:200A48001144703A1004C03AF800283A00C007C419401616DEFFFE04DFC00115DC00001592
:200A50000021303A00FFFF8480C6703A1801703A280490FA00C0003418D5A4041885883A28
:200A58001180001511C0011530000226000289400000010600028D408001703ADFC0011716
:200A6000DC000017DEC00204F800283A00BFFA84F800283ADEFFFE04DC0000152021883A1B
:200A68002809883A300B883A01807FC4DFC001150001434010000F1610C003240100003420
:200A70002110970420C7883A19000017810000151900011718C00217810001151009883A97
:200A780080C00215DFC00117DC000017DEC0020400015C41DFC00117DC000017DEC00204CD
:200A8000F800283ADEFFFB04DC000015040000342005883A84109A04DC4001150440004424
:200A8800DCC00315DC8002152827883A3025883A100B883A8009883A880D883ADFC00415C8
:200A900000029940813FFD04980B883A000D883A0002994081000304900B883A880D883A5F
:200A9800DFC00417DCC00317DC800217DC400117DC000017DEC00504000299410007303A3E
:200AA00000BFFF841884703A1001703A214001172080001711400115214001172880001526
:200AA80021000115210000151801703AF800283AD0A4D517DEFFFB04DC000015D4200A1762
:200AB00010800044DC800215DC400115DFC00415DCC00315D0A4D515D4600A0404800044D9
:200AB80084401A268080040384C0001710000326D0A4D5171000011E80000405D0E4D517C7
:200AC0008080021718800F368080040310000D1E8080031781000517103EE83A1000031E86
:200AC8008009883A0002A7C00000060680C0021710C5883AD0E4D5178080021510C0012EA8
:200AD000848004059821883A003FE506DFC00417DCC00317DC800217DC400117DC00001748
:200AD800DEC00504F800283A000170FAF800283A008200041140012E100B883A214B883A27
:200AE0002005883A1140032E1000603A10800804003FFC06210007CC200001261000603A21
:200AE8000000203AF800283ADEFFFD04DFC00215DC000115D94000152021883A0000ADC016
:200AF000D940001700C0003418C4330428C0011500C0003418D0AE0419000017800D883AA4
:200AF800100F883A00010CC010BFFFE00085C83ADFC00217DC000117DEC00304F800283A50
:200B0000218D883A218008262080000328C0000310C0022610C5C83AF800283A210000447A
:200B080029400044003FF7060005883AF800283A2005883A2007883A218D883A19800326C1
:200B10001940000518C00044003FFC06F800283A6D6E614420756B6120200A39000000202C
:200B18002077656E74617473642520650000000A3B315B1B4B1B4831000000006C6C654839
:200B20007266206F4E206D6F20736F690A214949000000007665642F64636C2F3236315F14
:200B2800305F3730000000003D64636C000A64256C6C656800000A6F646165727065655F61
:200B30003D6D6F72000A6425636568636D75736B0A64253D000000004449444564707520E5
:200B3800646574610000000074736F6C72637320006E656553206F4E656572630000006E60
:200B40006461655220676E6944494445002E2E2E4449444561655220000079646572635363
:200B480043206E65656E6E6F646574630000000063726F4653206465656572636E4F206E57
:200B5000000000007665642F61746A2F61755F67305F7472000000007665642F6C756E2FAC
:200B58000000006C2020200020202020282820202028282820202020202020202020202089
:200B6000202020201010882010101010101010101010101004040410040404041004040425
:200B6800101010104141101041414141010101010101010101010101010101010101010173
:200B7000101010104242101042424242020202020202020202020202020202020202020251
:200B78001010101000000020000000000000000000000000000000000000000000000000FD
:200B8000000000000000000000000000000000000000000000000000000000000000000055
:200B880000000000000000000000000000000000000000000000000000000000000000004D
:200B9000000000000000000000000000000000000000000000000000000000000000000045
:200B980000000000000000000000000000000000000000000000000000000000000000003D
:200BA000000000000000000000000000000000000000000000000000000000000000000035
:200BA80000000000000000000000000000000000000000000000000000000000000000002D
:200BB000000000000000000000000000000000000000000000000000000000000000000025
:200BB800000000002020200020202020282820202028282820202020202020202020202095
:200BC0002020202010108820101010101010101010101010040404100404040410040404C5
:200BC800101010104141101041414141010101010101010101010101010101010101010113
:200BD0001010101042421010424242420202020202020202020202020202020202020202F1
:200BD80010101010000000200000000000000000000000000000000000000000000000009D
:200BE0000000000000000000000000000000000000000000000000000000000000000000F5
:200BE8000000000000000000000000000000000000000000000000000000000000000000ED
:200BF0000000000000000000000000000000000000000000000000000000000000000000E5
:200BF8000000000000000000000000000000000000000000000000000000000000000000DD
:2010B800000000000000000000002CF400002D0000002D1000002D1C00002D3000000000E8
:2010C000000030BC000030C4000030CC000000000000000000000000000000000000000034
:2010C800000000000000000000000000000000000000000000000000000000000000000008
:2010D000000000000000000000000000000000000000000000000000000000000000000000
:2010D8000000000000000000000000000000000000000000000000000000000000000000F8
:2010E0000000000000000000000000000000000000000000000000000000000000000000F0
:2010E8000000000000000000000000000000000000000000000000000000000000000004E4
:2010F000000000000001000A000000000002000A00000000000000000000000000000000C9
:2010F8000000000000002C94000000000000000000000000000024E800000000000000000C
:2011000000000000010060000000000000000000000000000000000000000000000000006E
:201108000000000000000000000000000000000000000000000000000000000000000000C7
:201110000000000000000000000000000000000000000000000000000000000000000000BF
:201118000000000000000000000000000000000000000000000000000000000000000000B7
:201120000000000000000000000000000000000000000000000000000000000000000000AF
:201128000000000000000000000000000000000000000000000000000000000000000000A7
:2011300000000000000000000000000000000000000000000000000000000000000000009F
:20113800000000000000000000000000000000000000000000000000000000000000000097
:201140000000000000002D440000000000001758000017300000174400000000000000000D
:201148000000176C010020000000000A0000000000000000000000000000000000000000D9
:2011500000000000000000000000000000000000000000000000000000000000000000007F
:20115800000000000000000000000000000000000000000000000000000000000000000077
:2011600000000000000000000000000000000000000000000000000000000000000000006F
:20116800000000000000000000000000000000000000000000000000000000000000000067
:20155000000000000000000000000000000000000000000000000000000000000000428CAD
:2015580000000000000000000000428C00000000000000000000428C0000000000000000D7
:20156000000000000000000000000000000042C4000042C400002D580000000000000000DA
:20156800000000000000269800000000000000000000000000002FFC00002FFC602040008F
:20157000FFFFFFFF0000428C0000428C000042CC000042CC00000000FFFFFFFF000042DC8D
:20157800000042DC00002EE400000000000000000000000000000000000000000000000023
:2015800000000000000000000000000000000000000000000000000000000000000000004B
:20158800000000000000000000000000000000000000000000000000000000000000000043
:2015900000000000000000000000000000000000000000000000000000000000000000003B
:20159800000000000000000000000000000000000000000000000000000000000000000033
:00000001FF
