:020000020000FC
:20000000008200141001483A10BFF80400BFFD1600400034084053140800683A000000004D
:20000800DEFFED04DFC00015D8400215D8800315D8C00415D9000515D9400615D98007156A
:20001000D9C00815000B307ADA000915DA400A15DA800B15DAC00C15DB000D15DB400E15C4
:20001800DB800F15DBC01015D9401115EBFFFF04DBC012150009313A2880004C10000326FA
:200020002000022600000EC000000306DF401215E8BFFF17003DA03AD9401117DF401217FE
:20002800DFC000172801707AD8400217D8800317D8C00417D9000517D9400617D9800717F7
:20003000D9C00817DA000917DA400A17DA800B17DAC00C17DB000D17DB400E17DB800F17CA
:20003800DBC01017DEC01304EF80083ADEFFFE04DFC00115DC0000150009313A040000344F
:20004000841583040005883A00C00044190A703A28000B26100490FA8085883A10C0001743
:2000480011000117183EE83A0009313A203FF51EDFC00117DC000017DEC00204F800283A69
:2000500018C7883A10800044003FF00606C00074DEC0001406800034D6B08D140080003465
:200058001095591400C0003418D5C31410C00326100000151080010410FFFD36000129405F
:20006000000138C0003FFF06DEFFFB04DC800215DC400115DC000015DFC00415DCC0031565
:200068002025883A3023883A2821883A0000614089003FCC0000824010000326000067C0FA
:2000700000BFFFC4000011060009883A00008240000061408900005421003FCC00008240DE
:200078000023883A84FFFFC48C00060E8CC8803A00006D409447883A188000058C40004498
:20008000003FF906000067C08005883ADFC00417DCC00317DC800217DC400117DC000017A8
:20008800DEC00504F800283ADEFFF704DDC00715DD800615DD400515DD000415DCC003156D
:20009000DC800215DC400115DC000015DFC0081500801444208002050080054420800245CF
:2000980000800C8420800405008006442080044500BFE0042021883A2080050524400D8497
:2000A00025400DC425000E4424C00E8424800E0425801F8405C03F048880000310000D1ED1
:2000A800A880000310000B1E908000031000091E988000031000071EA080000315C0051E1F
:2000B0000140003489000144294AFA0401800344000093008C400484AD400484A50004842B
:2000B8009CC00484948004848DBFEB1E80001F858007883A81001FC40005883A194000035F
:2000C00018C000441145883A193FFC1E0085C83A80801FC5DFC00817DDC00717DD8006171C
:2000C800DD400517DD000417DCC00317DC800217DC400117DC000017DEC00904F800283A90
:2000D0002080000310C03FCC1800131E20C001C319403FCC2800131E20800044214001C4DE
:2000D80001803FC411C0000339800D1E10800044117FFC1E20C020040005883A214000031F
:2000E000210000441145883A20FFFC1E10803FCC1005003AF800283A0005883AF800283AE5
:2000E8001805883AF800283A0080403401BFC03401400034010040341094000431AC0004A4
:2000F00029556304211420041187883A1947883A18C000031080004410FFFFC5113FFA1E4C
:2000F800F800283ADEFFFE04DC000015D124CC152021883A01000034800B883A210AFE0436
:20010000DFC0011500009940D124CD1701400034294B02040180020400015A408421883A00
:2001080000800034108BDB048421883A1421883A840000178009883A0000A740D124CD17A5
:20011000800B883A100D883ADFC00117DC000017DEC0020400015A4101000034DEFFFD04A6
:20011800210B0504DFC00215DC000015DC4001150001548001000034000D883A210B0B04A5
:200120000140004400013CC001000034210B1004100B883AD0A4CD1500009940D124CD17E3
:2001280001400034294B1204018001840400403400015A408410000480C0003700BFFBC412
:200130001884703A808000350009883A00003E40D0A4CC1700C0004401000084014000C406
:2001380010C01E261880021610000426003FFC0611001F2611402E26003FF90601000034FA
:20014000211563040140200401802804000018801000030E0130D41400015800003FEC0694
:2001480001000034100B883A210B14040000994001000034211563040000340014403FCC03
:2001500001000034210B1804880B883A00009940883FDF2601000044003FDC06010000347D
:20015800211563040000228001000084003FD70680C0003700BFFBC41884703A8080003537
:20016000010003F4211090040001580000003A8001000034210B1C040000A6008080003751
:200168001080041480800035010000C4003FC706010000F4210350040001580001000034CE
:200170002115630401402004018028040000188000FFFFC410C00526010000342115630499
:200178000000340010803FCC103FB91E80C0003700BFFBC41884703A8080003501000034CD
:20018000210B20040000A600003FAF060100014400015801DEFFFE04DC000015040040348D
:2001880084100004DFC0011580C0003700BFFDC41884703A80800035000060C080C0003701
:2001900000BFFEC41884703A80800035000060C0808000371080021480800035000060C001
:20019800808000371080011480800035DFC00117DC000017DEC00204000060C1DEFFFE04E8
:2001A000DC0000150400403484100004DFC00115808000371080021480800035000060C057
:2001A80080C0003700BFFEC41884703A80800035000060C080C0003700BFFDC41884703A67
:2001B00080800035DFC00117DC000017DEC00204000060C1DEFFF804DC0000150400403449
:2001B800DCC00315841000042027883ADFC00715DD800615DD400515DD000415DC800215FF
:2001C000DC40011580C0003700BFFDC41884703A80800035000060C0050002040025883A69
:2001C800057FFEC40580403494403FCC8C40201C8C7FE0048C63883A8825883A80800037AB
:2001D0001544703A80800035B08000371080010C103FFA26000060C0008040341080003789
:2001D8001080020C100001268C800054044040348C50000480800037108001148080003529
:2001E000000060C0A0BFFFC41029883A10803FCC103FE51E9CC03FCC9CC0201C9CFFE00457
:2001E8009800032688800037108002140000030688C0003700BFFDC41884703A88800035C6
:2001F000000060C080C0003700BFFEC41884703A80800035000060C0808000371080011460
:2001F80080800035000060C080C0003700BFFDC41884703A808000359005883ADFC007170C
:20020000DD800617DD400517DD000417DCC00317DC800217DC400117DC000017DEC0080437
:20020800F800283ADEFFF904DC00001504004034DD400515DD000415DCC00315DC800215E5
:20021000DFC00615DC4001152025883A0500020484100004057FFDC404FFFEC490803FCC13
:200218001080201C10BFE0041000030E808000371544703A00000206808000371080021407
:200220008080003504404034000060C08C5000048080003714C4703A80800035000060C0C3
:2002280094A5883A808000371080011480800035A0BFFFC41029883A10803FCC103FE71E9E
:2002300088C0003700BFFDC41884703A88800035000060C088C0003700BFFEC41884703AC6
:2002380088800035000060C000804034108000371004D0FA1080004CD0A4CE05888000374E
:200240001080011488800035D0A4CE03DFC00617DD400517DD000417DCC00317DC8002175F
:20024800DC400117DC000017DEC00704F800283A2005883A0007883A1980062628C9883A44
:2002500021C0000310C9883A18C0004421C00005003FF906F800283ADEFFFD04DFC00015E3
:20025800D9800115D9C0021520C00217280D883A014000342944190419400115214002178F
:20026000D9C001040000AFC0DFC00017DEC00304F800283ADEFFFC04DFC00015D9400115FC
:20026800D9800215D9C003150080003410908E0410800017200B883A0100003410C00217BD
:2002700021041904D9800104190001151100021700010400DFC00017DEC00404F800283ABA
:20027800DEFFFD04DC0000152021883A2809883ADFC00215DC4001152823883A0000A740C5
:200280008140021700C0003418C4190428C001158009883A880D883A100F883A00010640CF
:2002880000FFFFC410C0092681400217018000348009883A28800117318B010401C0004435
:20029000103EE83A10BFFFE00085C83ADFC00217DC400117DC000017DEC00304F800283ACB
:200298000080003410908E04200B883A1100001700009E012005883A10C0000718000226AE
:2002A00010800044003FFC061105C83AF800283ADEFFFB04DC800315DC400215DC00011542
:2002A800DFC004152025883A2823883AD98000053821883A04000A0E888001179009883A5A
:2002B000880B883AD80D883A01C00044103EE83A843FFFC4103FF72600BFFFC40000010642
:2002B8000005883ADFC00417DC800317DC400217DC000117DEC00504F800283ADEFFE40440
:2002C000D8C00804DF001A15DDC01915DD801815DD401715DD001615DCC01515DC8014157B
:2002C800DC401315DC001215DFC01B152027883A2839883A382F883AD9800F150021883A4B
:2002D000D8000E15002D883A0029883A0025883A0023883AD8000C15D8000B15002B883A8F
:2002D800D8C00915D8C00F171900000320803FCC1080201C10BFE0041001242600C00044ED
:2002E000A8C014261D400216A800062600011B0601400084A9401D26014000C4A9402926C3
:2002E800000116060140094411410326E0800117D9000005E00B883A9809883AD80D883AC3
:2002F00001C00044103EE83A1000DE1E8400004400010A0601400C0411410026014009443D
:2002F80011400A1ED8800005E08001179809883AE00B883AD80D883AA80F883A103EE83AF8
:200300001000D01E840000440000FB06217FF40429403FCC00C002441940073600BFFFC4EC
:20030800888002268C4002A4000001060023883A8963883A0000EA0601400B841140EC2676
:2003100005400084213FF40421003FCC00C002441900073600BFFFC490800226948002A4B0
:20031800000001060025883A9125883A0000E30600C01B0410C0DC26013FFFC49100022609
:20032000D8000B15000001060480004401001A441100162620800916010018C411009226E5
:200328000100190411001126010016041100D21E00C00044D8C00E150000140601001CC479
:200330001100A2262080041601001BC41100CA1E0500020400000E0601001D4411000C267D
:2003380001001E04110009260000C306B8800104B0000726D8800D15BDC00017B800080E83
:2003400005EFC83A024000440000060605000404B8C00104D8C00D15BDC00017002D883A4E
:200348000013883A002B883ADD4D883AB8001626B809883AA00B883AD9801015DA40111545
:2003500000012840A089383A00C00244D9801017B92FC83ADA4011171DC00216BDC00C0455
:2003580000000506D8C00E1718000226BDC00DC400000106BDC015C435C00005AD400044A7
:20036000102F883A003FE80636C7C83AD8C00A1590C5C83A302F883A00800E0E302B883A68
:200368003085883A01400C04D8C00917A809883AA8C0052EAD40004421400005A82F883AB7
:20037000A8BFF91E00000106A82F883AAEEBC83ADD400A15D8C00A171A51883AD8C00B17D8
:200378008A2BC83A1800172648000A2600800B44D8800805E08001179809883AE00B883A25
:20038000D980080401C00044103EE83A10004D1E840000440540070E9809883AE00B883AD6
:2003880001800C04A80F883A0000A9001000451E8561883AD8C00A17B811883A1DEBC83A39
:20039000000022060540090E9809883AE00B883A01800804A80F883ADA4011150000A900CA
:20039800DA4011171000371E8561883A483FF12600800B44D8800805E08001179809883A49
:2003A000E00B883AD980080401C00044103EE83A10002C1E84000044003FE606423FFFC425
:2003A800408000039809883AE00B883AD8800805E0800117D9800804DA00101501C000441C
:2003B000103EE83ADA00101710001E1E8205C83A4549883AB885883A013FF0161021883A5F
:2003B800DDC00D1700004406008000441440080E8D7FFFC49809883AE00B883A0180080480
:2003C000A80F883A0000A90010000E1E8561883AB88000179809883AE00B883AD88000055B
:2003C800E0800117D80D883A01C00044BD400104103EE83A1000031E84000044A82F883AED
:2003D00000002D0600BFFFC400003106BD400017B8C00104D8C00A15A809883A0000A7407F
:2003D8008893C83A102F883A0240090E480F883A9809883AE00B883A01800804DA40111598
:2003E0000000A900DA401117103FEE1E8261883AE08001179809883AE00B883AA80D883A13
:2003E800B80F883A103EE83A103FE61E85E1883ADDC00A17000010060580004404BFFFC45E
:2003F000D8000E15050002849023883AD8000C15D8000B15B02B883A00000806DD400B1519
:2003F800054000840000050600C00044D8C00C15054000C400000106002B883AD8C00F1799
:2004000018C00044D8C00F15003ED6068005883ADFC01B17DF001A17DDC01917DD80181769
:20040800DD401717DD001617DCC01517DC801417DC401317DC001217DEC01C04F800283ACD
:200410002007883A0100003421108E04210000172805883A300F883A180B883A100D883AFF
:200418000000AFC12880000BDEFFFA04DC000015DFC00515DD000415DCC00315DC800215FF
:20042000DC4001151080020C2821883A100017262880008F100012162027883A3025883A05
:200428003823883A0501000404400B0E8140008F880F883AA440010E01C100049809883A6B
:20043000900D883A000111000080050E88A3C83A90A5883A003FF4060005883A000004067A
:200438008080000B108010148080000D00BFFFC4DFC00517DD000417DCC00317DC80021778
:20044000DC400117DC000017DEC00604F800283ADEFFFD04DC00001504000034DC4001153A
:2004480084155C042023883A2809883A300B883A380D883ADFC002158000001500015A40B9
:2004500000FFFFC410C0031E80C000171800012688C00015DFC00217DC400117DC00001707
:20045800DEC00304F800283A2900182E280017160080080400C000440000020610001126E2
:2004600028000516294B883A10BFFFC418C7883A293FFA3618000B260005883A214002368F
:200468002149C83A10C4B03A1806D07A280AD07A183FFA1E3000011EF800283A2005883A67
:20047000F800283A0005883A003FFA0600C00044003FF106DEFFFE04DFC00115DC0000154D
:2004780020000B160021883A28000C16000D883A000116800407C83A1884F03A1405883AE2
:20048000DFC00117DC000017DEC00204F800283A0109C83A04000044283FF40E014BC83AA9
:200488008400005C003FF106DEFFFD04DFC00215DC400115DC00001520000C160023883A60
:200490000021883A28000D1601800044000116801404F03A8885883ADFC00217DC400117C5
:20049800DC000017DEC00304F800283A0109C83A04400044043FFFC4283FF30E014BC83A02
:2004A000003FF106000D883A000116810180004400011681DEFFFF040100003401400034B8
:2004A800DFC00015210BDB0429509A042140061E010000340140003421000804294008048D
:2004B0002140141E00000D0600C0003418D09A0400BFFF041907C83A1886703A0005883A19
:2004B80010FFF326114F883A39C00017110D883A1080010431C00015003FF90601000034DC
:2004C00001400034210AFA04294AFA042140121E00000D0600C0003418C0530400BFFF0484
:2004C8001907C83A1886703A0005883A10FFF326114F883A39C00017110D883A1080010414
:2004D00031C00015003FF906000262C0DFC00017DEC00104000281C100C0003418CBDB0451
:2004D80000BFFF041907C83A1886703A0005883A10FFF526114F883A39C00017110D883AD5
:2004E0001080010431C00015003FF906DEFFFF040009883ADFC000150001628000016480FC
:2004E80001000034210B3204200B883A200D883A000299C0D124D217D164D117D1A4D017CF
:2004F000DFC00017DEC0010400004581DEFFF904DC0000152821883A014000342950910474
:2004F800DD400515DD000415DCC00315DC800215DFC00615DC4001152025883A3027883A84
:2005000000026B001029883A002B883A1000051E9009883A000272401029883A10003A26D9
:2005080005400044A009883A00027D001023883A100038161200032400C0003418D077047D
:200510000250003440D1883A4A7FFFC48252703A40800204A800052612400015A08003172E
:200518001000131E8805883A00002E064A50003412400015008000341090900411000017BA
:20052000400B883A0005883A19C00017298000173980031E198002173000010E1A001F1E15
:200528001080004418C0030420BFF72E003FEB06800D883A4009883A900B883A980F883AAC
:20053000103EE83A1021883A8805883A8000150E8809883A000155C0008000341090950400
:200538001080001710000226103EE83A000002060080003410955C040421C83A1400001543
:2005400000BFFFC400000706043FFB44047FFFC4003FEF061021883A003FED06043FFCC4E8
:20054800003FEB06DFC00617DD400517DD000417DCC00317DC800217DC400117DC00001724
:20055000DEC00704F800283A0080003410908E0410800017114002170002B40100800084D6
:200558001100060E2100032400800034109077041109883A2000021520000015F800283AA5
:2005600000025B41008000341090950410800017100001261000683A0080003410955C04A7
:20056800F800283ADEFFFE04DFC00115DC0000152000141621000324008000341090770433
:200570002089883A20800217108000CC10000A26208000171080061710000726103EE83A9A
:200578001021883A10000B0E000158400421C83A14000015000006060001584000C00344B2
:20058000000002060001584000C0144410C00015043FFFC48005883ADFC00117DC000017C6
:20058800DEC00204F800283ADEFFFF04DFC000150002B000008000441001703ADFC00017DA
:20059000DEC00104F800283ADEFFFD040100403401C0FA04DC400115210C0004000B883A0C
:20059800000D883A04400034DFC00215DC0000158C4C690400024D00018000448809883AA9
:2005A000000B883A040000340001848084109104800B883A893FF60404400034000263809C
:2005A8008C4C21048809883A00023940893FF604800B883ADFC00217DC400117DC0000177A
:2005B000DEC00304000263812005883A2100001711C0021721000A04000196C12005883A29
:2005B8002100001711C0021721000A040001AA412005883A210000171140021721000A042E
:2005C00000018C812100001721000A0400018F81208000171080010410C0003718C1000C5D
:2005C8001800052620C0081718C1001410C0003520000915000006062080091700E00034C1
:2005D00018FFFF04188002361080004420800915008000341095620410800017F800283ACF
:2005D80021C00017027FFF84023FFF44398001043080003710C0C00C1800322610C0400CB6
:2005E0001800182600C0007421400A1722800B17294000442941FFCC2A800B2638C000373F
:2005E8001960000C2800082621400A17214B883A28C00E0521400A17294000442941FFCC09
:2005F00021400A15003FF00618FFFFEC1800052620C008171A46703A20C0081530C00035C6
:2005F80030C0003710C0800C183FE1261004D43A103FDF2621400D1720C00C1728C00A26EC
:2006000020C00D1720C7883A18C20E0738C0003520C00D1710BFFFC418C0004418C1FFCCBB
:2006080020C00D15003FF2062080081720C000171204703A208008151880013530800037B1
:20061000003FCB06F800283ADEFFFD04DC0001152021883A80C0001700800044DFC00215BC
:200618002809883A8080081518800135300B883A018000343185D804800F883AD800001562
:20062000000282800080003410956204114000170180003480000915810002043185C40437
:20062800800F883A000252001000030E00A0003410BFFFC480800115DFC00217DC000117C4
:20063000DEC00304F800283A21800C172950000C20800D171180062620C009172080011729
:200638001880032E283FFA2600BFFD44F800283A0005883AF800283A009A804428800326A8
:20064000009A808428800E260000160620C0011700A0003410BFFFC418801226308000170F
:2006480001600034297FFF0410FFFF8428C0022E00A0003410BFFF842080011500000706BF
:2006500020C0011700A0003410BFFFC4188005262080091710C5803A308000150005883A8E
:20065800F800283A00BFF9C4F800283ADEFFF604DF000815DDC00715DD800615DD00041558
:20066000DCC00315DC000015DFC00915DD400515DC800215DC4001152021883A282D883A22
:200668003027883A3829883A05C200043F10000C04C02B0EB007883A85400A1784800B178E
:20067000AC800236ACA3C83A00000106BCA3C83A88000D269C40012E9823883A91400E0427
:200678001809883A880D883A814B883A000093001447883A9C67C83A8CA3883A8C41FFCC5C
:2006800084400B1504FFEC161D80091EE000141E80800A17A880031E80C0091780800117B9
:2006880018BFFB3680800A17A8BFE11E00000C06000B303A00BFFF842884703A1001703AE9
:2006900081000817808000172100005481000815110001352801703A1D85C83A00000506B7
:20069800A510000CA000022600BFFD440000010600BFFEC4DFC00917DF000817DDC00717B9
:2006A000DD800617DD400517DD000417DCC00317DC800217DC400117DC000017DEC00A0491
:2006A800F800283ADEFFF304DF000B15DDC00A15DD800915DD400815DD000715DC80051525
:2006B000DC000315382F883ADFC00C15DCC00615DC4004152025883A282B883A3029883A2A
:2006B8002821883A002D883A073FFF8439D0000C0201FFC40242000405001E0E94C00C1794
:2006C00095800D179D80032EB47FFFC48CE3C83A00000406B00002264CE3C83A0000010612
:2006C80044E3C83A88001326A440012EA023883A99020E04800B883A880D883A9109883AE3
:2006D0008461883AA469C83A8CE3883AD9C00015DA000115DA4002158C41FFCC0000930029
:2006D800DA40021794400C15DA000117D9C00017003FE1060007303A1F04703A1001703A19
:2006E00090800817910000171080009490800815208001351801703A0500090E3800111EB6
:2006E80090800D17B080031E90C009179080011718BFFB3690800917103FCF26000006064D
:2006F000854002268545C83A00000806BDD0000CB800051E00000106857FFA1E00BFFEC40B
:2006F80000000206857FF71E00BFFD44DFC00C17DF000B17DDC00A17DD800917DD40081787
:20070000DD000717DCC00617DC800517DC400417DC000317DEC00D04F800283ADEFFFD0499
:20070800DC400115DFC00215DC000015208008072440001710000F1E00C003F418D090045E
:2007100089800104308000371080200C1000052618FFFFC4183FFB1E008000442080080522
:2007180000000406010019042821883A000158008C000035DFC00217DC400117DC00001795
:20072000DEC00304F800283ADEFFFB0401400044DFC00415DCC00315DC800215DC40011548
:20072800DC000015044008042021883A04C014440001C1C081001004880B883A980D883A7E
:200730008000084580000885800008C50002BC800480040481000C04880B883A900D883A73
:200738000002BC80810028C4880B883A980D883A800024450002BC80810024C4880B883A55
:20074000900D883A0002BC8080003D05DFC00417DCC00317DC800217DC400117DC0000172E
:20074800DEC00504F800283ADEFFF204DDC00B15DD000815DC800615DC400515DFC00D1598
:20075000DF000C15DD800A15DD400915DCC00715DC00041520C00943202F883A24802444DC
:20075800D8C00015250024840023883AA4000003D8C00017958000071C21383A8021D23A54
:20076000858001160021883A8D4018E4D0E0020488C7883ABD6B883A94FFE7C40039883AC7
:20076800DD400115D8C00215E409883AB00B883A00012280D8C00117990000071885883A11
:2007700015401003A8803FCC1080201C10BFE00420802626D8C00217B90008C7188000038F
:20077800E085883A11403FCC2900082600FFE00410CAB03AB809883A29403FCCD880031579
:200780000001C1C0D8800317B88008C5B8800807B94000171000141E010003F4211090040A
:200788002A000104408000371080200C10000526213FFFC4203FFB1E00800044B880080590
:200790000000090601001904D940031500015800D9400317A8803FCC28800235B88008C34A
:2007980010800044B88008C59D400005E7000044008004049CC00044E0BFCB1E00800044E7
:2007A000948018C4A50018C4888002261023883A003FB606DFC00D17DF000C17DDC00B1724
:2007A800DD800A17DD400917DD000817DCC00717DC800617DC400517DC000417DEC00E0468
:2007B000F800283ADEFFFE04DC000015DFC00115208009432021883A2100098310C03FCCD3
:2007B80018C00044190002168000094500000206108000448080094520000426808009C7C2
:2007C0001000021E8009883A0001D28080800717DFC00117DC000017DEC00204F800283A85
:2007C800DEFFFC04DC800215DC400115248028C404401404DC000015900B883A2021883A52
:2007D000880D883A21001004DFC00315000093009009883A01400804880D883A0002BC80F6
:2007D8008080088310BFFFC480800885DFC00317DC800217DC400117DC000017DEC004045C
:2007E000F800283ADEFFF604DDC00715DD800615DD400515DD000415DCC00315DC80021543
:2007E800DC400115DC000015DFC00915DF00081500800044048000342021883A2823883A89
:2007F0003027883A29A9883A208009C5054006C4058003449490990425C00A448D009A2EAA
:2007F8008F00000380800907E0C03FCC18C0201C18FFE004100063161000031E010016C4F0
:200800001900081E000059069100001720C9883A210000432100010C2000521E01000EC4F2
:20080800190050268085883A10000A0581000A07008016C42080C41E92000017B809883AC1
:200810000005883A21400007414D883A318000433180010C30000526108002A4297FF40466
:20081800210000441145883A003FF60601800EC42980261E214000440009883A29800007A8
:20082000418F883A39C0004339C0010C38000526210002A431BFF404294000442189883AB9
:20082800003FF6060140128419401A2628C002160140120400000306014012C419401A26F5
:20083000014019841940251E0100020E213FFFC4810008450080210E10BFFFC411003FCCCF
:2008380000C0010419000236808008850000010680C008850700008480800883E080172E6E
:200840008009883A0001F200003FFB06010012841900851E00C0008410C0101E8009883A3A
:200848000001C88000000D0600800C168080084300C013C418800936810008830180140434
:2008500001400804210018E4308DC83A210010048109883A2089883A0002BC8000BFFFC4B3
:200858000000060600C00184188035168085883A17000A0580800903108000448080090571
:2008600000002F061D40021E8000090500002C061D80021E80000845000029060080028447
:2008680018800A1E808008838000084500C00084108000448080088510803FCC1880202E32
:200870008009883A0001F20000001D06008002041880061E8080084310C03FCC1800182649
:2008780010BFFFC480800845000015069080001710C7883A18800047108025CC1000102600
:200880008080088300C000441880022E8009883A0001F20080C00843008013C419003FCCBD
:200888001100053680800883108018E48085883A1105883A1700100518C0004480C0084579
:200890008C400044003F65060140040480C024448100248481C055C4020008042813883A0F
:20089800008014041ABFDBC411BFFFC45197883A5AC010075A00031E3005883A303FFA1EC9
:2008A000000003064880020E108000440000010600800404188000052880010E100B883AC3
:2008A8002000000518C018C4210018C419FFEC1E008004042880031E800009850480004411
:2008B00000001006810024472963883A844009851100040E2008923A880B883A00011D40BC
:2008B8008080248581003D0700800404113FF30E2008923A880B883A00011D4080803D45B0
:2008C000003FEE068009883A844009430001D28080800943800009C58C403FCC144010263C
:2008C800848009C5003FF70620C002160100120400000306010012C4193F7B26010019847C
:2008D000193F6426003F85060080128418BF832610FF820E008012C418BF801E003F7306A4
:2008D8009805883ADFC00917DF000817DDC00717DD800617DD400517DD000417DCC00317C8
:2008E000DC800217DC400117DC000017DEC00A04F800283ADEFFFC04DC800215DC400115D4
:2008E800DC000015DFC00315244000172021883A20000805010EA6040001580004800C04F7
:2008F0008C80003501040104000158008C8000350100FA04000158008C8000358009883A1F
:2008F80001400E040001C1C004400204880B883A8009883A0001C1C08009883A0001C8800B
:200900008009883A014001840001C1C08009883A014003040001C1C000BFFFC4880D883A56
:2009080081000A0480800905000B883A0002BC800080003410956204110000178000094572
:2009100080000985800009C501400284000128400180003481000104100B883A3187B104B6
:20091800800F883A80800715DFC00317DC800217DC400117DC000017DEC004040002520102
:200920002005883A2100001711C0021721000A040001F841DEFFFE04DFC00115DC000015C0
:2009280020000035208001370021303A00BFFF848084703A1001703A0002A4808001703AFB
:20093000DFC00117DC000017DEC00204F800283A00C0003418D562042005883A2809883ADE
:2009380019400017DEFFFE04DFC001152800011E19C0001500C001C410C00135300B883ADE
:2009400001800034D800001531892504100F883A00028280DFC00117DEC00204F800283A78
:2009480000800034109562041080001710001D2620001E262180031521C005150007303A4D
:2009500000BFFF841884703A1001703A00800034109561041080001711800044314B883ACC
:20095800214002152880032E008000442080040500000106200004050080003410909704A2
:200960001140001720800115214000151140001711000015290001151801703A0005883A8C
:20096800F800283A00BFDE84F800283A00BFFA84F800283A01420034DEFFFE04297FFFC442
:20097000DC000015DFC001152021883A0001284010000E2601600034013E00340007883A40
:20097800297FFFC421000044297FFFC4283FFE1E18C000448121883A18BFFB168020913ACE
:20098000843FFFC4803FFE1E000003068020913A843FFFC4043FFE160005883ADFC0011727
:20098800DC000017DEC00204F800283AF800283A3005883AF800283A2000022620800217B2
:200990001000131E00800034109095041080001710000926DEFFFF04DFC00015103EE83A2F
:2009980000C0058410C0001500BFFA84DFC00017DEC00104F800283A0080003410955C0468
:2009A00000C0058410C0001500BFFA84F800283A28800017214001152080001528800017C8
:2009A80011000115290000150005883AF800283ADEFFFB04DCC00315DC800215DC40011574
:2009B000DC000015DFC004152027883A2823883A2C0000170000A740148000448440072675
:2009B80081000217980B883A900D883A0002B9801000042684000017003FF8060005883AAD
:2009C000000001068005883ADFC00417DCC00317DC800217DC400117DC000017DEC0050416
:2009C800F800283A00800034DEFFFA0410909304DC00001514000017DD000415DCC0031529
:2009D000DC800215DFC00515DC4001152027883A1025883A05000BC48480122684400217BC
:2009D8008809883A0000A7408887883A18FFFFC71D00011E10BFFFC49887883A18C0000789
:2009E0001D0001261800051E8809883A980B883A100D883A0002B9801000042684000017D1
:2009E800003FED060005883A000001068005883ADFC00517DD000417DCC00317DC800217CA
:2009F000DC400117DC000017DEC00604F800283A018000340005883A3190770401400104C0
:2009F80010C003241987883A19C000173800071E1900001500C0003418D09004190000176B
:200A00002080050E18800015F800283A10800044117FF31E00BFFA04F800283A0009883AC5
:200A0800014200040002B08100028C41000D303A00BFFF843084703A1001703A00800034FF
:200A1000109560040100004410C00017214A983A28CAB03A1140001510800017100170FAF0
:200A18003001703A0005883AF800283A000D303A00BFFF843084703A1001703A008000343C
:200A200010956004013FFF8410C00017214A183A28CA703A1140001510800017100170FA22
:200A28003001703A0005883AF800283A000530FA00C00044194A983A1144703A1004C03A3D
:200A3000F800283A00C007C419401616DEFFFE04DFC00115DC0000150021303A00FFFF84AA
:200A380080C6703A1801703A280490FA00C0003418D583041885883A1180001511C00115E1
:200A400030000226000282C000000106000286C08001703ADFC00117DC000017DEC0020432
:200A4800F800283A00BFFA84F800283ADEFFFE04DC0000152021883A2809883A300B883ADA
:200A500001807FC4DFC0011500013CC010000F1610C00324010000342110770420C7883A5A
:200A580019000017810000151900011718C00217810001151009883A80C00215DFC0011716
:200A6000DC000017DEC00204000155C1DFC00117DC000017DEC00204F800283ADEFFFB0444
:200A6800DC000015040000342005883A84107A04DC40011504400044DCC00315DC8002156B
:200A70002827883A3025883A100B883A8009883A880D883ADFC00415000292C0813FFD04F2
:200A7800980B883A000D883A000292C081000304900B883A880D883ADFC00417DCC003172A
:200A8000DC800217DC400117DC000017DEC00504000292C10007303A00BFFF841884703AC5
:200A88001001703A2140011720800017114001152140011728800015210001152100001559
:200A90001801703AF800283AD0A4D417DEFFFB04DC000015D4200A1710800044DC800215A1
:200A9800DC400115DFC00415DCC00315D0A4D415D4600A040480004484401A26808004032E
:200AA00084C0001710000326D0A4D4171000011E80000405D0E4D4178080021718800F36F6
:200AA8008080040310000D1E8080031781000517103EE83A1000031E8009883A0002A14066
:200AB0000000060680C0021710C5883AD0E4D4178080021510C0012E848004059821883AED
:200AB800003FE506DFC00417DCC00317DC800217DC400117DC000017DEC00504F800283AE7
:200AC000000170FAF800283A008200041140012E100B883A214B883A2005883A1140032ED7
:200AC8001000603A10800804003FFC06210007CC200001261000603A0000203AF800283AEE
:200AD000DEFFFD04DFC00215DC000115D94000152021883A0000A740D940001700C0003444
:200AD80018C4190428C0011500C0003418D08E0419000017800D883A100F883A00010640F2
:200AE00010BFFFE00085C83ADFC00217DC000117DEC00304F800283A218D883A21800826D7
:200AE8002080000328C0000310C0022610C5C83AF800283A2100004429400044003FF706E9
:200AF0000005883AF800283A2005883A2007883A218D883A198003261940000518C0004449
:200AF800003FFC06F800283A6D6E614420756B6120200A39000000202077656E7461747399
:200B0000642520650000000A3B315B1B4B1B4831000000006C6C65487266206F4E206D6FC6
:200B080020736F690A214949000000007665642F64636C2F3236315F305F373000000000E7
:200B10003D64636C000A64256C6C656800000A6F646165727065655F3D6D6F72000A642551
:200B1800636568636D75736B0A64253D00000000444944456470752064657461000000007D
:200B200074736F6C72637320006E656553206F4E656572630000006E6461655220676E693C
:200B280044494445002E2E2E4449444561655220000079646572635343206E65656E6E6F6F
:200B300064657463000000007665642F61746A2F61755F67305F7472000000007665642FAA
:200B38006C756E2F0000006C202020002020202028282020202828282020202020202020AB
:200B40002020202020202020101088201010101010101010101010100404041004040404E1
:200B480010040404101010104141101041414141010101010101010101010101010101017B
:200B5000010101011010101042421010424242420202020202020202020202020202020275
:200B5800020202021010101000000020000000000000000000000000000000000000000015
:200B6000000000000000000000000000000000000000000000000000000000000000000075
:200B680000000000000000000000000000000000000000000000000000000000000000006D
:200B7000000000000000000000000000000000000000000000000000000000000000000065
:200B780000000000000000000000000000000000000000000000000000000000000000005D
:200B8000000000000000000000000000000000000000000000000000000000000000000055
:200B880000000000000000000000000000000000000000000000000000000000000000004D
:200B9000000000000000000000000000000000000000000000000000000000000000000045
:200B9800000000000000000020202000202020202828202020282828202020202020202035
:200BA000202020202020202010108820101010101010101010101010040404100404040481
:200BA80010040404101010104141101041414141010101010101010101010101010101011B
:200BB000010101011010101042421010424242420202020202020202020202020202020215
:200BB8000202020210101010000000200000000000000000000000000000000000000000B5
:200BC000000000000000000000000000000000000000000000000000000000000000000015
:200BC80000000000000000000000000000000000000000000000000000000000000000000D
:200BD000000000000000000000000000000000000000000000000000000000000000000005
:200BD8000000000000000000000000000000000000000000000000000000000000000000FD
:20109800000000000000000000002C8C00002C9800002CA800002CB4000000000000303C9C
:2010A000000030440000304C00000000000000000000000000000000000000000000000040
:2010A800000000000000000000000000000000000000000000000000000000000000000028
:2010B000000000000000000000000000000000000000000000000000000000000000000020
:2010B800000000000000000000000000000000000000000000000000000000000000000018
:2010C000000000000000000000000000000000000000000000000000000000000000000010
:2010C800000000000000000000000000000000000000000000000000000000040000000004
:2010D0000001000A000000000002000A0000000000000000000000000000000000000000E9
:2010D80000002C2C00000000000000000000000000002480000000000000000000000000FC
:2010E00001006000000000000000000000000000000000000000000000000000000000008F
:2010E8000000000000000000000000000000000000000000000000000000000000000000E8
:2010F0000000000000000000000000000000000000000000000000000000000000000000E0
:2010F8000000000000000000000000000000000000000000000000000000000000000000D8
:201100000000000000000000000000000000000000000000000000000000000000000000CF
:201108000000000000000000000000000000000000000000000000000000000000000000C7
:201110000000000000000000000000000000000000000000000000000000000000000000BF
:201118000000000000000000000000000000000000000000000000000000000000000000B7
:2011200000002CC800000000000016F0000016C8000016DC000000000000000000001704CA
:20112800010020000000000A0000000000000000000000000000000000000000000000007C
:2011300000000000000000000000000000000000000000000000000000000000000000009F
:20113800000000000000000000000000000000000000000000000000000000000000000097
:2011400000000000000000000000000000000000000000000000000000000000000000008F
:20114800000000000000000000000000000000000000000000000000000000000000000087
:201530000000000000000000000000000000000000000000000000000000420C000000004D
:20153800000000000000420C00000000000000000000420C000000000000000000000000F7
:201540000000000000000000000042440000424400002CDC00000000000000000000000077
:201548000000263000000000000000000000000000002F7C00002F7C60204000FFFFFFFF1B
:201550000000420C0000420C0000424C0000424C00000000FFFFFFFF0000425C0000425C8B
:2015580000002E6800000000000000000000000000000000000000000000000000000000DD
:2015600000000000000000000000000000000000000000000000000000000000000000006B
:20156800000000000000000000000000000000000000000000000000000000000000000063
:2015700000000000000000000000000000000000000000000000000000000000000000005B
:20157800000000000000000000000000000000000000000000000000000000000000000053
:00000001FF
